{
  "contractName": "MyToken",
  "abi": [
    {
      "inputs": [],
      "stateMutability": "nonpayable",
      "type": "constructor"
    },
    {
      "anonymous": false,
      "inputs": [
        {
          "indexed": true,
          "internalType": "address",
          "name": "owner",
          "type": "address"
        },
        {
          "indexed": true,
          "internalType": "address",
          "name": "spender",
          "type": "address"
        },
        {
          "indexed": false,
          "internalType": "uint256",
          "name": "value",
          "type": "uint256"
        }
      ],
      "name": "Approval",
      "type": "event"
    },
    {
      "anonymous": false,
      "inputs": [
        {
          "indexed": true,
          "internalType": "address",
          "name": "from",
          "type": "address"
        },
        {
          "indexed": true,
          "internalType": "address",
          "name": "to",
          "type": "address"
        },
        {
          "indexed": false,
          "internalType": "uint256",
          "name": "value",
          "type": "uint256"
        }
      ],
      "name": "Transfer",
      "type": "event"
    },
    {
      "inputs": [],
      "name": "INITIAL_SUPPLY",
      "outputs": [
        {
          "internalType": "uint256",
          "name": "",
          "type": "uint256"
        }
      ],
      "stateMutability": "view",
      "type": "function",
      "constant": true
    },
    {
      "inputs": [],
      "name": "MINTED_SUPPLY",
      "outputs": [
        {
          "internalType": "uint256",
          "name": "",
          "type": "uint256"
        }
      ],
      "stateMutability": "view",
      "type": "function",
      "constant": true
    },
    {
      "inputs": [
        {
          "internalType": "address",
          "name": "owner",
          "type": "address"
        },
        {
          "internalType": "address",
          "name": "spender",
          "type": "address"
        }
      ],
      "name": "allowance",
      "outputs": [
        {
          "internalType": "uint256",
          "name": "",
          "type": "uint256"
        }
      ],
      "stateMutability": "view",
      "type": "function",
      "constant": true
    },
    {
      "inputs": [
        {
          "internalType": "address",
          "name": "spender",
          "type": "address"
        },
        {
          "internalType": "uint256",
          "name": "amount",
          "type": "uint256"
        }
      ],
      "name": "approve",
      "outputs": [
        {
          "internalType": "bool",
          "name": "",
          "type": "bool"
        }
      ],
      "stateMutability": "nonpayable",
      "type": "function"
    },
    {
      "inputs": [
        {
          "internalType": "address",
          "name": "account",
          "type": "address"
        }
      ],
      "name": "balanceOf",
      "outputs": [
        {
          "internalType": "uint256",
          "name": "",
          "type": "uint256"
        }
      ],
      "stateMutability": "view",
      "type": "function",
      "constant": true
    },
    {
      "inputs": [
        {
          "internalType": "uint256",
          "name": "amount",
          "type": "uint256"
        }
      ],
      "name": "burn",
      "outputs": [],
      "stateMutability": "nonpayable",
      "type": "function"
    },
    {
      "inputs": [
        {
          "internalType": "address",
          "name": "account",
          "type": "address"
        },
        {
          "internalType": "uint256",
          "name": "amount",
          "type": "uint256"
        }
      ],
      "name": "burnFrom",
      "outputs": [],
      "stateMutability": "nonpayable",
      "type": "function"
    },
    {
      "inputs": [],
      "name": "decimals",
      "outputs": [
        {
          "internalType": "uint8",
          "name": "",
          "type": "uint8"
        }
      ],
      "stateMutability": "view",
      "type": "function",
      "constant": true
    },
    {
      "inputs": [
        {
          "internalType": "address",
          "name": "spender",
          "type": "address"
        },
        {
          "internalType": "uint256",
          "name": "subtractedValue",
          "type": "uint256"
        }
      ],
      "name": "decreaseAllowance",
      "outputs": [
        {
          "internalType": "bool",
          "name": "",
          "type": "bool"
        }
      ],
      "stateMutability": "nonpayable",
      "type": "function"
    },
    {
      "inputs": [
        {
          "internalType": "address",
          "name": "spender",
          "type": "address"
        },
        {
          "internalType": "uint256",
          "name": "addedValue",
          "type": "uint256"
        }
      ],
      "name": "increaseAllowance",
      "outputs": [
        {
          "internalType": "bool",
          "name": "",
          "type": "bool"
        }
      ],
      "stateMutability": "nonpayable",
      "type": "function"
    },
    {
      "inputs": [],
      "name": "name",
      "outputs": [
        {
          "internalType": "string",
          "name": "",
          "type": "string"
        }
      ],
      "stateMutability": "view",
      "type": "function",
      "constant": true
    },
    {
      "inputs": [],
      "name": "symbol",
      "outputs": [
        {
          "internalType": "string",
          "name": "",
          "type": "string"
        }
      ],
      "stateMutability": "view",
      "type": "function",
      "constant": true
    },
    {
      "inputs": [],
      "name": "totalSupply",
      "outputs": [
        {
          "internalType": "uint256",
          "name": "",
          "type": "uint256"
        }
      ],
      "stateMutability": "view",
      "type": "function",
      "constant": true
    },
    {
      "inputs": [
        {
          "internalType": "address",
          "name": "to",
          "type": "address"
        },
        {
          "internalType": "uint256",
          "name": "amount",
          "type": "uint256"
        }
      ],
      "name": "transfer",
      "outputs": [
        {
          "internalType": "bool",
          "name": "",
          "type": "bool"
        }
      ],
      "stateMutability": "nonpayable",
      "type": "function"
    },
    {
      "inputs": [
        {
          "internalType": "address",
          "name": "from",
          "type": "address"
        },
        {
          "internalType": "address",
          "name": "to",
          "type": "address"
        },
        {
          "internalType": "uint256",
          "name": "amount",
          "type": "uint256"
        }
      ],
      "name": "transferFrom",
      "outputs": [
        {
          "internalType": "bool",
          "name": "",
          "type": "bool"
        }
      ],
      "stateMutability": "nonpayable",
      "type": "function"
    }
  ],
  "bytecode": "0x60806040523480156200001157600080fd5b506040518060400160405280600781526020017f4d79546f6b656e000000000000000000000000000000000000000000000000008152506040518060400160405280600281526020017f4d540000000000000000000000000000000000000000000000000000000000008152506012600a6200008e9190620004d5565b6127106200009d919062000526565b3383838160039080519060200190620000b892919062000298565b508060049080519060200190620000d192919062000298565b505050620000e681836200012060201b60201c565b505050506200011a336012600a620000ff9190620004d5565b6127106200010e919062000526565b6200012060201b60201c565b620006fa565b600073ffffffffffffffffffffffffffffffffffffffff168273ffffffffffffffffffffffffffffffffffffffff16141562000193576040517f08c379a00000000000000000000000000000000000000000000000000000000081526004016200018a90620005e8565b60405180910390fd5b620001a7600083836200028e60201b60201c565b8060026000828254620001bb91906200060a565b92505081905550806000808473ffffffffffffffffffffffffffffffffffffffff1673ffffffffffffffffffffffffffffffffffffffff168152602001908152602001600020600082825401925050819055508173ffffffffffffffffffffffffffffffffffffffff16600073ffffffffffffffffffffffffffffffffffffffff167fddf252ad1be2c89b69c2b068fc378daa952ba7f163c4a11628f55a4df523b3ef836040516200026e919062000678565b60405180910390a36200028a600083836200029360201b60201c565b5050565b505050565b505050565b828054620002a690620006c4565b90600052602060002090601f016020900481019282620002ca576000855562000316565b82601f10620002e557805160ff191683800117855562000316565b8280016001018555821562000316579182015b8281111562000315578251825591602001919060010190620002f8565b5b50905062000325919062000329565b5090565b5b80821115620003445760008160009055506001016200032a565b5090565b7f4e487b7100000000000000000000000000000000000000000000000000000000600052601160045260246000fd5b60008160011c9050919050565b6000808291508390505b6001851115620003d657808604811115620003ae57620003ad62000348565b5b6001851615620003be5780820291505b8081029050620003ce8562000377565b94506200038e565b94509492505050565b600082620003f15760019050620004c4565b81620004015760009050620004c4565b81600181146200041a576002811462000425576200045b565b6001915050620004c4565b60ff8411156200043a576200043962000348565b5b8360020a91508482111562000454576200045362000348565b5b50620004c4565b5060208310610133831016604e8410600b8410161715620004955782820a9050838111156200048f576200048e62000348565b5b620004c4565b620004a4848484600162000384565b92509050818404811115620004be57620004bd62000348565b5b81810290505b9392505050565b6000819050919050565b6000620004e282620004cb565b9150620004ef83620004cb565b92506200051e7fffffffffffffffffffffffffffffffffffffffffffffffffffffffffffffffff8484620003df565b905092915050565b60006200053382620004cb565b91506200054083620004cb565b9250817fffffffffffffffffffffffffffffffffffffffffffffffffffffffffffffffff04831182151516156200057c576200057b62000348565b5b828202905092915050565b600082825260208201905092915050565b7f45524332303a206d696e7420746f20746865207a65726f206164647265737300600082015250565b6000620005d0601f8362000587565b9150620005dd8262000598565b602082019050919050565b600060208201905081810360008301526200060381620005c1565b9050919050565b60006200061782620004cb565b91506200062483620004cb565b9250827fffffffffffffffffffffffffffffffffffffffffffffffffffffffffffffffff038211156200065c576200065b62000348565b5b828201905092915050565b6200067281620004cb565b82525050565b60006020820190506200068f600083018462000667565b92915050565b7f4e487b7100000000000000000000000000000000000000000000000000000000600052602260045260246000fd5b60006002820490506001821680620006dd57607f821691505b60208210811415620006f457620006f362000695565b5b50919050565b611886806200070a6000396000f3fe608060405234801561001057600080fd5b50600436106100f55760003560e01c806342966c681161009757806395d89b411161006657806395d89b4114610288578063a457c2d7146102a6578063a9059cbb146102d6578063dd62ed3e14610306576100f5565b806342966c681461020257806358d9a2121461021e57806370a082311461023c57806379cc67901461026c576100f5565b806323b872dd116100d357806323b872dd146101665780632ff2e9dc14610196578063313ce567146101b457806339509351146101d2576100f5565b806306fdde03146100fa578063095ea7b31461011857806318160ddd14610148575b600080fd5b610102610336565b60405161010f9190610e17565b60405180910390f35b610132600480360381019061012d9190610ed2565b6103c8565b60405161013f9190610f2d565b60405180910390f35b6101506103eb565b60405161015d9190610f57565b60405180910390f35b610180600480360381019061017b9190610f72565b6103f5565b60405161018d9190610f2d565b60405180910390f35b61019e610424565b6040516101ab9190610f57565b60405180910390f35b6101bc610442565b6040516101c99190610fe1565b60405180910390f35b6101ec60048036038101906101e79190610ed2565b61044b565b6040516101f99190610f2d565b60405180910390f35b61021c60048036038101906102179190610ffc565b610482565b005b610226610496565b6040516102339190610f57565b60405180910390f35b61025660048036038101906102519190611029565b6104b4565b6040516102639190610f57565b60405180910390f35b61028660048036038101906102819190610ed2565b6104fc565b005b61029061051c565b60405161029d9190610e17565b60405180910390f35b6102c060048036038101906102bb9190610ed2565b6105ae565b6040516102cd9190610f2d565b60405180910390f35b6102f060048036038101906102eb9190610ed2565b610625565b6040516102fd9190610f2d565b60405180910390f35b610320600480360381019061031b9190611056565b610648565b60405161032d9190610f57565b60405180910390f35b606060038054610345906110c5565b80601f0160208091040260200160405190810160405280929190818152602001828054610371906110c5565b80156103be5780601f10610393576101008083540402835291602001916103be565b820191906000526020600020905b8154815290600101906020018083116103a157829003601f168201915b5050505050905090565b6000806103d36106cf565b90506103e08185856106d7565b600191505092915050565b6000600254905090565b6000806104006106cf565b905061040d8582856108a2565b61041885858561092e565b60019150509392505050565b6012600a6104329190611259565b61271061043f91906112a4565b81565b60006012905090565b6000806104566106cf565b90506104778185856104688589610648565b61047291906112fe565b6106d7565b600191505092915050565b61049361048d6106cf565b82610ba6565b50565b6012600a6104a49190611259565b6127106104b191906112a4565b81565b60008060008373ffffffffffffffffffffffffffffffffffffffff1673ffffffffffffffffffffffffffffffffffffffff168152602001908152602001600020549050919050565b61050e826105086106cf565b836108a2565b6105188282610ba6565b5050565b60606004805461052b906110c5565b80601f0160208091040260200160405190810160405280929190818152602001828054610557906110c5565b80156105a45780601f10610579576101008083540402835291602001916105a4565b820191906000526020600020905b81548152906001019060200180831161058757829003601f168201915b5050505050905090565b6000806105b96106cf565b905060006105c78286610648565b90508381101561060c576040517f08c379a0000000000000000000000000000000000000000000000000000000008152600401610603906113c6565b60405180910390fd5b61061982868684036106d7565b60019250505092915050565b6000806106306106cf565b905061063d81858561092e565b600191505092915050565b6000600160008473ffffffffffffffffffffffffffffffffffffffff1673ffffffffffffffffffffffffffffffffffffffff16815260200190815260200160002060008373ffffffffffffffffffffffffffffffffffffffff1673ffffffffffffffffffffffffffffffffffffffff16815260200190815260200160002054905092915050565b600033905090565b600073ffffffffffffffffffffffffffffffffffffffff168373ffffffffffffffffffffffffffffffffffffffff161415610747576040517f08c379a000000000000000000000000000000000000000000000000000000000815260040161073e90611458565b60405180910390fd5b600073ffffffffffffffffffffffffffffffffffffffff168273ffffffffffffffffffffffffffffffffffffffff1614156107b7576040517f08c379a00000000000000000000000000000000000000000000000000000000081526004016107ae906114ea565b60405180910390fd5b80600160008573ffffffffffffffffffffffffffffffffffffffff1673ffffffffffffffffffffffffffffffffffffffff16815260200190815260200160002060008473ffffffffffffffffffffffffffffffffffffffff1673ffffffffffffffffffffffffffffffffffffffff168152602001908152602001600020819055508173ffffffffffffffffffffffffffffffffffffffff168373ffffffffffffffffffffffffffffffffffffffff167f8c5be1e5ebec7d5bd14f71427d1e84f3dd0314c0f7b2291e5b200ac8c7c3b925836040516108959190610f57565b60405180910390a3505050565b60006108ae8484610648565b90507fffffffffffffffffffffffffffffffffffffffffffffffffffffffffffffffff8114610928578181101561091a576040517f08c379a000000000000000000000000000000000000000000000000000000000815260040161091190611556565b60405180910390fd5b61092784848484036106d7565b5b50505050565b600073ffffffffffffffffffffffffffffffffffffffff168373ffffffffffffffffffffffffffffffffffffffff16141561099e576040517f08c379a0000000000000000000000000000000000000000000000000000000008152600401610995906115e8565b60405180910390fd5b600073ffffffffffffffffffffffffffffffffffffffff168273ffffffffffffffffffffffffffffffffffffffff161415610a0e576040517f08c379a0000000000000000000000000000000000000000000000000000000008152600401610a059061167a565b60405180910390fd5b610a19838383610d74565b60008060008573ffffffffffffffffffffffffffffffffffffffff1673ffffffffffffffffffffffffffffffffffffffff16815260200190815260200160002054905081811015610a9f576040517f08c379a0000000000000000000000000000000000000000000000000000000008152600401610a969061170c565b60405180910390fd5b8181036000808673ffffffffffffffffffffffffffffffffffffffff1673ffffffffffffffffffffffffffffffffffffffff16815260200190815260200160002081905550816000808573ffffffffffffffffffffffffffffffffffffffff1673ffffffffffffffffffffffffffffffffffffffff168152602001908152602001600020600082825401925050819055508273ffffffffffffffffffffffffffffffffffffffff168473ffffffffffffffffffffffffffffffffffffffff167fddf252ad1be2c89b69c2b068fc378daa952ba7f163c4a11628f55a4df523b3ef84604051610b8d9190610f57565b60405180910390a3610ba0848484610d79565b50505050565b600073ffffffffffffffffffffffffffffffffffffffff168273ffffffffffffffffffffffffffffffffffffffff161415610c16576040517f08c379a0000000000000000000000000000000000000000000000000000000008152600401610c0d9061179e565b60405180910390fd5b610c2282600083610d74565b60008060008473ffffffffffffffffffffffffffffffffffffffff1673ffffffffffffffffffffffffffffffffffffffff16815260200190815260200160002054905081811015610ca8576040517f08c379a0000000000000000000000000000000000000000000000000000000008152600401610c9f90611830565b60405180910390fd5b8181036000808573ffffffffffffffffffffffffffffffffffffffff1673ffffffffffffffffffffffffffffffffffffffff1681526020019081526020016000208190555081600260008282540392505081905550600073ffffffffffffffffffffffffffffffffffffffff168373ffffffffffffffffffffffffffffffffffffffff167fddf252ad1be2c89b69c2b068fc378daa952ba7f163c4a11628f55a4df523b3ef84604051610d5b9190610f57565b60405180910390a3610d6f83600084610d79565b505050565b505050565b505050565b600081519050919050565b600082825260208201905092915050565b60005b83811015610db8578082015181840152602081019050610d9d565b83811115610dc7576000848401525b50505050565b6000601f19601f8301169050919050565b6000610de982610d7e565b610df38185610d89565b9350610e03818560208601610d9a565b610e0c81610dcd565b840191505092915050565b60006020820190508181036000830152610e318184610dde565b905092915050565b600080fd5b600073ffffffffffffffffffffffffffffffffffffffff82169050919050565b6000610e6982610e3e565b9050919050565b610e7981610e5e565b8114610e8457600080fd5b50565b600081359050610e9681610e70565b92915050565b6000819050919050565b610eaf81610e9c565b8114610eba57600080fd5b50565b600081359050610ecc81610ea6565b92915050565b60008060408385031215610ee957610ee8610e39565b5b6000610ef785828601610e87565b9250506020610f0885828601610ebd565b9150509250929050565b60008115159050919050565b610f2781610f12565b82525050565b6000602082019050610f426000830184610f1e565b92915050565b610f5181610e9c565b82525050565b6000602082019050610f6c6000830184610f48565b92915050565b600080600060608486031215610f8b57610f8a610e39565b5b6000610f9986828701610e87565b9350506020610faa86828701610e87565b9250506040610fbb86828701610ebd565b9150509250925092565b600060ff82169050919050565b610fdb81610fc5565b82525050565b6000602082019050610ff66000830184610fd2565b92915050565b60006020828403121561101257611011610e39565b5b600061102084828501610ebd565b91505092915050565b60006020828403121561103f5761103e610e39565b5b600061104d84828501610e87565b91505092915050565b6000806040838503121561106d5761106c610e39565b5b600061107b85828601610e87565b925050602061108c85828601610e87565b9150509250929050565b7f4e487b7100000000000000000000000000000000000000000000000000000000600052602260045260246000fd5b600060028204905060018216806110dd57607f821691505b602082108114156110f1576110f0611096565b5b50919050565b7f4e487b7100000000000000000000000000000000000000000000000000000000600052601160045260246000fd5b60008160011c9050919050565b6000808291508390505b600185111561117d57808604811115611159576111586110f7565b5b60018516156111685780820291505b808102905061117685611126565b945061113d565b94509492505050565b6000826111965760019050611252565b816111a45760009050611252565b81600181146111ba57600281146111c4576111f3565b6001915050611252565b60ff8411156111d6576111d56110f7565b5b8360020a9150848211156111ed576111ec6110f7565b5b50611252565b5060208310610133831016604e8410600b84101617156112285782820a905083811115611223576112226110f7565b5b611252565b6112358484846001611133565b9250905081840481111561124c5761124b6110f7565b5b81810290505b9392505050565b600061126482610e9c565b915061126f83610e9c565b925061129c7fffffffffffffffffffffffffffffffffffffffffffffffffffffffffffffffff8484611186565b905092915050565b60006112af82610e9c565b91506112ba83610e9c565b9250817fffffffffffffffffffffffffffffffffffffffffffffffffffffffffffffffff04831182151516156112f3576112f26110f7565b5b828202905092915050565b600061130982610e9c565b915061131483610e9c565b9250827fffffffffffffffffffffffffffffffffffffffffffffffffffffffffffffffff03821115611349576113486110f7565b5b828201905092915050565b7f45524332303a2064656372656173656420616c6c6f77616e63652062656c6f7760008201527f207a65726f000000000000000000000000000000000000000000000000000000602082015250565b60006113b0602583610d89565b91506113bb82611354565b604082019050919050565b600060208201905081810360008301526113df816113a3565b9050919050565b7f45524332303a20617070726f76652066726f6d20746865207a65726f2061646460008201527f7265737300000000000000000000000000000000000000000000000000000000602082015250565b6000611442602483610d89565b915061144d826113e6565b604082019050919050565b6000602082019050818103600083015261147181611435565b9050919050565b7f45524332303a20617070726f766520746f20746865207a65726f20616464726560008201527f7373000000000000000000000000000000000000000000000000000000000000602082015250565b60006114d4602283610d89565b91506114df82611478565b604082019050919050565b60006020820190508181036000830152611503816114c7565b9050919050565b7f45524332303a20696e73756666696369656e7420616c6c6f77616e6365000000600082015250565b6000611540601d83610d89565b915061154b8261150a565b602082019050919050565b6000602082019050818103600083015261156f81611533565b9050919050565b7f45524332303a207472616e736665722066726f6d20746865207a65726f20616460008201527f6472657373000000000000000000000000000000000000000000000000000000602082015250565b60006115d2602583610d89565b91506115dd82611576565b604082019050919050565b60006020820190508181036000830152611601816115c5565b9050919050565b7f45524332303a207472616e7366657220746f20746865207a65726f206164647260008201527f6573730000000000000000000000000000000000000000000000000000000000602082015250565b6000611664602383610d89565b915061166f82611608565b604082019050919050565b6000602082019050818103600083015261169381611657565b9050919050565b7f45524332303a207472616e7366657220616d6f756e742065786365656473206260008201527f616c616e63650000000000000000000000000000000000000000000000000000602082015250565b60006116f6602683610d89565b91506117018261169a565b604082019050919050565b60006020820190508181036000830152611725816116e9565b9050919050565b7f45524332303a206275726e2066726f6d20746865207a65726f2061646472657360008201527f7300000000000000000000000000000000000000000000000000000000000000602082015250565b6000611788602183610d89565b91506117938261172c565b604082019050919050565b600060208201905081810360008301526117b78161177b565b9050919050565b7f45524332303a206275726e20616d6f756e7420657863656564732062616c616e60008201527f6365000000000000000000000000000000000000000000000000000000000000602082015250565b600061181a602283610d89565b9150611825826117be565b604082019050919050565b600060208201905081810360008301526118498161180d565b905091905056fea26469706673582212209be0e4b0052789df32333f41c08bb8ffc4aeff3031493ee62121f837485ff70264736f6c634300080b0033",
  "immutableReferences": {},
  "source": "// SPDX-License-Identifier: MIT\npragma solidity ^0.8.0;\n\nimport \"@openzeppelin/contracts/token/ERC20/presets/ERC20PresetFixedSupply.sol\";\n\n/**\n * @title TanganyTestToken\n * @dev Very simple ERC20 Token example, where all 10000 tokens are pre-assigned to the creator.\n */\ncontract MyToken is ERC20PresetFixedSupply {\n    /**\n     * @dev Constructor that gives msg.sender all of existing tokens.\n     */\n\n    uint256 public constant INITIAL_SUPPLY = 10000 * (10 ** uint256(18)); // Initially Mint 10000 tokens\n\n    uint256 public constant MINTED_SUPPLY = 10000 * (10 ** uint256(18)); // Then Mint another 10000 tokens\n\n    constructor () ERC20PresetFixedSupply(\"MyToken\", \"MT\", INITIAL_SUPPLY, msg.sender) {\n        _mint(msg.sender, MINTED_SUPPLY);\n    }\n}",
  "sourcePath": "/Users/ads/Documents/truffle/contracts/MyToken.sol",
  "compiler": {
    "name": "solc",
    "version": "0.8.11+commit.d7f03943.Emscripten.clang"
  },
  "schemaVersion": "3.4.4",
  "updatedAt": "2023-02-03T01:30:48.370Z",
  "networkType": "ethereum",
  "devdoc": {
    "details": "Very simple ERC20 Token example, where all 10000 tokens are pre-assigned to the creator.",
    "kind": "dev",
    "methods": {
      "allowance(address,address)": {
        "details": "See {IERC20-allowance}."
      },
      "approve(address,uint256)": {
        "details": "See {IERC20-approve}. NOTE: If `amount` is the maximum `uint256`, the allowance is not updated on `transferFrom`. This is semantically equivalent to an infinite approval. Requirements: - `spender` cannot be the zero address."
      },
      "balanceOf(address)": {
        "details": "See {IERC20-balanceOf}."
      },
      "burn(uint256)": {
        "details": "Destroys `amount` tokens from the caller. See {ERC20-_burn}."
      },
      "burnFrom(address,uint256)": {
        "details": "Destroys `amount` tokens from `account`, deducting from the caller's allowance. See {ERC20-_burn} and {ERC20-allowance}. Requirements: - the caller must have allowance for ``accounts``'s tokens of at least `amount`."
      },
      "decimals()": {
        "details": "Returns the number of decimals used to get its user representation. For example, if `decimals` equals `2`, a balance of `505` tokens should be displayed to a user as `5.05` (`505 / 10 ** 2`). Tokens usually opt for a value of 18, imitating the relationship between Ether and Wei. This is the value {ERC20} uses, unless this function is overridden; NOTE: This information is only used for _display_ purposes: it in no way affects any of the arithmetic of the contract, including {IERC20-balanceOf} and {IERC20-transfer}."
      },
      "decreaseAllowance(address,uint256)": {
        "details": "Atomically decreases the allowance granted to `spender` by the caller. This is an alternative to {approve} that can be used as a mitigation for problems described in {IERC20-approve}. Emits an {Approval} event indicating the updated allowance. Requirements: - `spender` cannot be the zero address. - `spender` must have allowance for the caller of at least `subtractedValue`."
      },
      "increaseAllowance(address,uint256)": {
        "details": "Atomically increases the allowance granted to `spender` by the caller. This is an alternative to {approve} that can be used as a mitigation for problems described in {IERC20-approve}. Emits an {Approval} event indicating the updated allowance. Requirements: - `spender` cannot be the zero address."
      },
      "name()": {
        "details": "Returns the name of the token."
      },
      "symbol()": {
        "details": "Returns the symbol of the token, usually a shorter version of the name."
      },
      "totalSupply()": {
        "details": "See {IERC20-totalSupply}."
      },
      "transfer(address,uint256)": {
        "details": "See {IERC20-transfer}. Requirements: - `to` cannot be the zero address. - the caller must have a balance of at least `amount`."
      },
      "transferFrom(address,address,uint256)": {
        "details": "See {IERC20-transferFrom}. Emits an {Approval} event indicating the updated allowance. This is not required by the EIP. See the note at the beginning of {ERC20}. NOTE: Does not update the allowance if the current allowance is the maximum `uint256`. Requirements: - `from` and `to` cannot be the zero address. - `from` must have a balance of at least `amount`. - the caller must have allowance for ``from``'s tokens of at least `amount`."
      }
    },
    "stateVariables": {
      "INITIAL_SUPPLY": {
        "details": "Constructor that gives msg.sender all of existing tokens."
      }
    },
    "title": "TanganyTestToken",
    "version": 1
  },
  "userdoc": {
    "kind": "user",
    "methods": {},
    "version": 1
  }
}